:10000000003C0120118D0100B5990100B599010056
:10001000B5990100B5990100B5990100B5990100A4
:10002000B5990100B5990100B5990100B599010094
:0C003000B5990100B599010079BB0000F2
:04003C0000000000C0
:1000400090B00AF08BF9DFF8089C09F1020009F181
:10005000040115F047FA09F114001BF029FBDFF841
:10006000F46BDFF8F41BC9F80800002409F11C0048
:1000700041F2883200230590CDE9004615F03EFD9F
:10008000DFF8D80BDFF8D81BDFF8D8BB0022152328
:1000900000901020D847DFF8D01B10200022022348
:1000A0004FF00208D8470DF0BDFFDFF8C01B10204D
:1000B00001220125D847DFF8B81B10204FF0FF328E
:1000C000D84719F09BFB4FF0FF3015F02FFF0320AE
:1000D000DFF8A07B8DF820508DF8248001218DF869
:1000E000270004208DF8260005208DF82C00E74815
:1000F0000A9008AA0020B84709AA01200121B847A0
:100100000DF1270202200121B8470DF1260203203C
:100110000121B8470AAA04200521B84706F10C00BE
:100120001AF0DCFFDFF8501B06F118021020D84748
:1001300099F80210DFF844AB5020D047DFF8401B9D
:1001400002461020D84799F802105020D047DFF817
:10015000341B02461020D847DFF82C1B1020FB224E
:1001600040F64803D847DFF8241B1020D847DFF8B3
:10017000200B12F0E5FA4FF6FD7016F01BFC99F813
:1001800002105020D0470346DFF8080BDFF8081BA9
:100190000422CDE900801020D847DFF8000BC021F1
:1001A0001BF09CFCDFF8F40A4FF6FF71C02C02D064
:1001B00001531834FAE74FF0FF30002115F016FE16
:1001C000DFF8905ADFF8D84A00214FF0FF32A860DC
:1001D000DFF8D00A2060204619F0CAFEA868DFF8D0
:1001E000C83A2146052218F0FFFEDFF8C0AAA86829
:1001F000DFF8BC3A00229AF800101AF072FE0AA842
:10020000DFF8245BDFF8286B02300690D9F8040091
:1002100000214FF040424FF0FF330DF0FBFB002870
:10022000F4D0834600200DF12701089009A808AA00
:1002300018F0E1FA002840F07483BDF8240010287B
:1002400040F0678399F802009DF82710814240F042
:100250006083DDF820804FF6FF70B8F8001081420F
:1002600000F05983080AC9B2912900F01581B0291C
:1002700000F04181D02940F04E8398F80210072900
:1002800000F25D81DFE811F008009A019A019A01FD
:100290009A01A401F6015E02002840F03A83002092
:1002A000ADF82B0018F8060F8DF82800B8F80100FB
:1002B00098F80510ADF82900B8F803008DF82F1054
:1002C0000821ADF82D0000200AAA0DF03FFEDFF84E
:1002D00084099AF80010DFF83C3A00220131806866
:1002E0001BF03EFC09F10100DFF82C1ADFF82C2A84
:1002F000DFF82C3A00901BF039FC000640F0A68491
:100300006349DFF8203A08684968020E1971090A42
:100310001870DA70020C597100F00F019A70020A1D
:100320005A7045F24D220A29AA805A4A2A6001F1E0
:10033000370238BF01F13002C0F303216A7201F1C4
:1003400037020A2938BF01F13002C0F30721EA71F0
:10035000C0F30332A029C0B202F1370338BF02F163
:1003600030033721020901EB1011A028AB7138BF0F
:1003700002F130010B2099F8012000230090DFF8F2
:10038000AC092972314601901BF0F0FB000640F0E9
:100390005D840A2099F8012031460123CDE900054A
:1003A0001BF0E4FB000640F0518499F80120DFF8CF
:1003B00084191020922311F0D5FF002099F8012014
:1003C000DFF84419002300901BF0D0FB000640F03A
:1003D0003D84DFF84419DFF84429DFF85C39102048
:1003E000CDF8009011F0BEFF000640F02F840B20E6
:1003F00099F80020314600230090DFF84009019071
:100400001BF0B4FB000640F0218499F80020DFF8CF
:1004100024191020922311F0A5FF002099F8002044
:10042000DFF8E418002300901BF0A0FB000640F06A
:100430000D84DFF820689AF800704046B46817F021
:1004400055F8DFF8FC18DFF8FC380022CDE9001081
:10045000B81DC1B220461AF044FD15F025FB701CF2
:100460000121DFF8CC6840F6B8320023CDE9001056
:10047000DFF8E41709F1400015F040FBDFF8200831
:100480000221002219F074FD43E200BF01020304BF
:10049000E8120050090957413E2861D00F2872D058
:1004A000102800F086800E2840F03382D8F808101B
:1004B000B8F8042042F2300308789A4200F06081D4
:1004C00041F205439A4240F02482002840F0218204
:1004D000B1F8010091F9038019F08AFF0828C0F0F3
:1004E000A481DFF870079AF80010DFF8F4370022D3
:1004F0000131806863E398F804007F280AD07E28E1
:1005000016D1DFF850079AF8001098F80820DFF8A5
:10051000D83707E0DFF83C079AF80010B8F8082051
:10052000DFF8C03701318068009200221BF018FB11
:1005300098F8041008F108001BF0A6FFE9E1112962
:100540003CD1B8F80400ADF8280098F80E008DF8FA
:100550003200B8F80A00002800F04981002052E17A
:1005600098F802000C2840F0D481DFF8E80698F8EB
:1005700003209AF800108068002A00F04B810131B6
:10058000DFF834377FE1B8F8040042F232018842E4
:1005900040F0BF8198F80210DFF8B8061A2940F041
:1005A00019819AF800108068DFF82837002201319D
:1005B00018E1082000210BF02DFDAAE1DFF89406D8
:1005C0009AF80020511C02328068C9B2D2B2B6E05B
:1005D000DFF82817102011F0C5FEC1B20446DFF87D
:1005E00074069AF80020DFF81C370091911C80688F
:1005F00000221BF0B5FA98F80100002840F06D8148
:10060000B8F80A30002000F11801D82900F049811B
:10061000DFF88826105A4FF6FF7290420846F2D152
:10062000DFF8780607934718032027F8183C1BF0DB
:10063000F2FA002847F8140C00F03081082101700C
:10064000079957F8140CA0F8011024201BF0E3FAC6
:1006500057F8141C002847F8100C00F01C810122E8
:100660000023CDE90021DFF8F01541F2707215F09A
:1006700045FA13E1DFF88416102011F073FE9AF8A2
:100680000010DFF8D0650446DFF87436002201312F
:10069000B0681BF065FA9AF80010B068DFF86436AD
:1006A000E7B20022009702311BF05AFAB8F8048032
:1006B000404619F09DFE082827D0DFF8E0150446D3
:1006C00000EB400001EBC0008668AEB130461BF085
:1006D0000CFB10B130461BF00CFB30461BF02EFB20
:1006E00030461BF092FADFF8B41504EB440001EB3E
:1006F000C00040681BF089FA404619F033F94046C3
:1007000016F0B4FE404616F055F9DFF8246647B9F6
:1007100005981BF0EEFADFF888050221012219F096
:1007200027FCDFF8E4751AF0A7FD1AF06BFEDFF87E
:1007300024059AF80010002203318068C9B21BF02A
:100740005BF9E6E0B8F80420DFF8A01510200AAB4A
:1007500011F008FEDFF8FC0484689AF80000871C9A
:1007600098F80300E0B10698079498F8024016F054
:10077000BDFECDE900400798DFF87435F9B217E007
:10078000002840F0C680DFF8CC04CB7809799AF8CD
:100790000020CDE90031D11D8068DFF83C350DE245
:1007A000069816F0A3FEDFF84C350090F9B220460B
:1007B00000221AF096FB09F10C0019F0C3FC002886
:1007C00000F0A780044600890EF0A0FD20461BF033
:1007D0001CFA9EE09AF8002000918068DFF8F0345F
:1007E000511C00221BF0BCF942F232004FE0002005
:1007F000ADF82E00D8F80600CDF82A00B8F80C00A5
:10080000ADF830000120DFF8F0148DF8330010202F
:100810000AAA7CE098F80730DFF8A024012B2ED03C
:10082000022B25D1DFF8982429E05FFA88F10446ED
:100830007F2900F0B481DFF8642404EB440002EB6C
:10084000C0077A7C501C787407F10C008154052293
:10085000797CB1FBF2F202EB8202891A00227974F0
:100860000021052900F09281435601311A44F8E72E
:10087000032BDFF85034DFF8502408BF1A4602314A
:10088000DFF84834009200221BF06AF90C20414640
:1008900010F0EAFB3DE008461BF0B7F9012007F82D
:1008A000040CDFF8B0039AF800708068079008F134
:1008B000040016F01BFE0090781CDFF85034002274
:1008C000C1B207981AF00DFBDFF8D4030121022210
:1008D00019F04EFB05981BF00AFA14F0F80F0AD134
:1008E000DFF87003807830B9DFF81C741AF0C4FCAC
:1008F0001AF088FD0DE0DFF8184499F80020102068
:10090000214611F02FFD99F801201020214611F009
:1009100029FDDDF82080B8F1000F02D040461BF021
:100920000DF9DFF830835FEA4B007FF56FACD9F843
:1009300008001AF0D5FF00287FF468ACD9F8080049
:100940001AF0F8F90028F2D0044600780138082897
:1009500000F2D880DFE800F0054835581A707C6A4C
:100960007F0060680078022800F09980002840F03D
:10097000C98000200AA916F099FD9AF800109DF888
:100980002820D8F80800DFF8F83393E067682E468F
:10099000C84D787A50B19AF80010D8F80800DFF8FE
:1009A000AC330022009503311BF0DAF8FA88DFF847
:1009B000A01310200023009511F0D4FC3546DC4E26
:1009C000A0E067683868102800F07B80022800F0FB
:1009D0008580012840F090807A689AF80010D8F855
:1009E0000800DFF894337FE060680078010741D4A5
:1009F000C00640F187800E201AF02AFB002840F044
:100A0000818017F023F87DE061680878032800F200
:100A100079800979DFE800F002927EA69AF800104A
:100A2000D8F80800D14B0022033146E06068B0F8E6
:100A300001000EF06BFC69E002200AA916F036FDF9
:100A400000285FD1032001210AAA10F01FFF59E0FE
:100A500015F02AF856E060684788384619F0C8FC57
:100A600008280FD39AF80010D8F808009C4B0022F1
:100A7000013122E00F201AF0EBFA002842D118F0E1
:100A80009BFA3FE0854900EB400001EBC000C07DD0
:100A9000C0B3AD4910203A4611F064FC32E00220A8
:100AA0000AA916F003FD9AF800109DF82820D8F83E
:100AB0000800B24B013100920022C9B21AF011FABB
:100AC00020E07A689AF80010D8F808001378528865
:100AD0000431C9B2CDE90032A54B09E07A689AF831
:100AE0000010D8F80800A34B12780431C9B2009264
:100AF00000221AF0F6F93868B0F1004F02D0786899
:100B00001BF083F8606808B11BF07FF820461BF0EB
:100B10007CF80CE70029D8F8080001BF9AF800100B
:100B20000331C9B200220FBF8D4B9AF8002000910B
:100B3000D11C1EBFC9B20022884BBFE70029D8F8DC
:100B4000080001BF9AF800100331C9B200220FBF9C
:100B5000854B9AF800200091D11C1EBFC9B200221B
:100B6000804BABE70029D8F8080001BF9AF80010C5
:100B70000331C9B200220FBF774B9AF800200091D1
:100B8000D11C1EBFC9B20022724B97E710B20521DB
:100B90003A4690FBF1F012F8131FB87491B13F4937
:100BA00004EB44009AF800204C4B01EBC00090F994
:100BB00012102848CDE90081511D806800221AF0EA
:100BC000CFFFA6E6C0B241B211F11E0F09DB387D9E
:100BD00040F002000228E2D000234FF0020C022174
:100BE00017E0D82807D3387D0228D8D300234FF048
:100BF000010C01210DE0CE2807D3387D0028CED08E
:100C0000012304214FF0060C03E04FF0020C0421F5
:100C10000223BE461EF8150F604502D1B87D01289B
:100C2000BDD8388803920A46CDF81CC0CDF810E034
:100C300017F0B2FB049A039B0120079918701078F3
:100C400088421CBF0020B8751170A8E71AF096FA08
:100C5000CC21002068250020117A0100F425002015
:100C600085470100652301002D760100F1A40100F4
:100C7000E98401008D18010091A001009193010009
:100C8000D96C02102D6D02100D520210397F011027
:100C9000539C0100B4270020BDAD0000203500208A
:100CA000F03F002065E2010035D9000075410020C9
:100CB000EDE0010040E20100E2E1010032E6010066
:100CC00041E10100D6E5010002E1010053E201002B
:100CD0004CDF0100ECDC01002EE20100A4DF01008A
:100CE0001BDD0100CEE3010090E30100F9DC0110FF
:100CF00008DE010080E00100D9570110B9B1010000
:100D00002CE10100C0E30100ED74011080E301005B
:100D1000650202106CE401009901011001970100C5
:100D200088250020B4400020804000204427002077
:100D300011D100001DEF0110A42500204F27002035
:100D40002FE6010060E401000D2B0210DBE301003F
:100D5000A98C0100C3E0010077E20100ADE00100D1
:100D60001BE20100BDE20100A0E3010030E301004D
:100D70002ADE010080E10100F5E10100E2E401006A
:100D8000D7E4010038B586B004468DF805104FF65B
:100D9000FF720120ADF80220090ADFF8BC5AADF855
:100DA000000002238DF806108DF8043069462A7879
:100DB00020461BF065FB162803D1297820461BF03E
:100DC0005BFB07B030BD3EB504000D461ED0DFF81A
:100DD0008C0A006822461BF04BFBFF2815D0002030
:100DE0000090002301AA294620460EF015FD60B9A7
:100DF0009DF8040000F06CF9C00606D59DF80400CB
:100E000000F066F910F0040000D001203EBDFEB5F0
:100E1000154600F0B2FB15D100208DF80400DFF874
:100E2000387A9DF80400F97988421AD22A46214678
:100E300000F03EF800B100269DF80400401C8DF83B
:100E40000400EEE71BF010FB50B100F09CFB40B932
:100E50009DF804002A46214600F02AF8002600E00A
:100E600014263046FEBD7CB50D46044606214C4393
:100E7000164620346A460821204618F063FEA8B9B9
:100E800000F074F890B99DF80700002E14BF0543D8
:100E900020EA0505E9B2814206D08DF807506A467E
:100EA0000821204618F062FE012076BD002076BDA4
:100EB0002DE9FC418046444606230D4616465C4318
:100EC0006A46082104F1200018F03CFE00284AD1AF
:100ED00000F04CF8002846D100F024FA040002D1BA
:100EE00000F01DFA3FE0397A08F1E0082246890057
:100EF000404618F027FE90BB204600F04FF828002F
:100F00000ED13A7A9206120E0021204619F0EAFB21
:100F100028BB3A7A9200002120461AF06BF915E0BE
:100F2000214600F028F850B9300004D021460020B6
:100F300000F021F810B900F013FC14E0058081786E
:100F4000B1420CD086700EB900210180204600F01D
:100F500025F8397A22468900404618F007FE00F04D
:100F6000FFFB012000E00020BDE8F6810622FF2102
:100F7000684619F0B7BBB0B5DFF8DC381F7A00223D
:100F800000E0521CD4B2BC4206D231F82450854253
:100F9000F7D101EB8400B0BD0020B0BD10B5002139
:100FA000DFF8B4280AE030F82130DB4320F82130A4
:100FB00000EB8103491C9C78E4439C70137A9942AE
:100FC000F1DB10BD2DE9FE4FDFF88C580646287A7C
:100FD0000F469246984680001AF004FB5FEA00092B
:100FE00003D100F09CF90A2070E00C9C02974FF0AE
:100FF000060B37461BFB07FB029A08210BF120006A
:1010000018F0B4FD8DF80400304600F099F82A7A03
:101010009200FF2148461AF0EDF89DF80400009078
:101020004A46297A890006F1E00018F09FFD009EEB
:1010300002990643286A082200EBC7001AF0E4F878
:10104000F4B110220021204619F04CFBC0B90299DE
:1010500088790023224600F001001BF001FA0028E5
:101060001CBF9DF93C00002803D0DFF8F4170120D5
:101070000870224610210BF1230018F077FD06437B
:101080005FEA0A0205D01C210BF1210018F06EFD69
:1010900006435FEA080205D01C210BF1220018F07C
:1010A00065FD06430D9A4AB110210BF1240018F09A
:1010B0005DFD06430EAA00F02DF90643A87D08B198
:1010C00000F096FA48461AF095FAF0B2BDE8FE8FA5
:1010D000E0B5062358436A460821203018F032FD57
:1010E00010B99DF807000EBDFF200EBDDFF8682780
:1010F000107808210DF0A6BD38B500F081F816E093
:10110000286A062300EBC40213FB04F3082103F151
:10111000200018F017FD40B100F081FA1AF06AF8CB
:101120002A6A02EBC4000021C171641CE4B2E979AF
:101130008C42E5DBA87D10B1BDE8314058E231BDFD
:10114000F8B5DFF81417DFF81C47CB79194600E033
:101150001146CAB242B14A1E2568C9B20D4415F8FB
:10116000011C8142F4D11346DFF8EC16C979DBB2D9
:1011700018464D1E07E01718165C7F781754226832
:101180000244401C5670A8422268F4DBAB4204DAE9
:10119000BDE8F840052018F0E9BCF1BD70B500F0DD
:1011A0002FF800E0641CE879E3B283420BD22B6A8B
:1011B000E6B20622FF2103EBC60019F093FA0028DD
:1011C000F0D0E0B270BDDFF8A026117839B1DFF8B9
:1011D000940601680C78204600F016F8204670BD91
:1011E00038B5002000F00CF803E0E0B200F00CF895
:1011F000641CEA79E1B2914201D20100F5D032BD1E
:101200000024DFF8545670472DE9F84F4FF0060BD5
:101210001BFB00FB8EB081460BF1200501AA0821C3
:10122000284618F08FFC00286BD10622FF2101A868
:1012300019F058FA002864D100F074F85FEA000849
:1012400003D100F06CF80A205DE01C22FF2103A806
:1012500019F0D0FF3A7A9200FF21404619F0CAFFF8
:101260000BF123060AAA1021304618F06BFC60B976
:101270001022FF210AA819F035FA30B99DF80A00AA
:1012800001A900F001001BF0E7F8082200F03EF889
:1012900001AA0821284618F069FC054603AA1C216A
:1012A0000BF1210018F062FC8DF8000003AA1C214C
:1012B0000BF1220018F05AFC044603AA1021304614
:1012C00018F054FC064603AA10210BF1240018F074
:1012D0004DFC824603AA00F01DF89DF800100D4356
:1012E000254335434AEA0505397A054342468900D4
:1012F00009F1E00018F03AFC054340461AF07AF98B
:1013000000E0002528460FB0BDE8F08FFF2101A8BE
:1013100019F070BF04210BF1250018F027BC042040
:1013200018F0C2B9DFF83075387A80001AF05AB96F
:101330002DE9F84187B0FF208DF80000DFF818751F
:10134000F8791AF04FF9040003D1FFF7E8FF0A20FB
:1013500030E01022FF2103A819F04CFFFA79FF2199
:10136000204619F047FF0622FFF7D0FF03AA1021FD
:10137000022018F0FBFB054603AA1021032018F0F9
:10138000F5FB05436A460121042018F0EFFB0646F1
:10139000F9792246052018F0E9FB074601AA062143
:1013A000062018F0E3FB804600F0DAF935433D43B0
:1013B00048EA050008B0BDE8F081DFF89C244088C9
:1013C000117818F06FBBF0B5A9B006460D4614466B
:1013D0001BF04AF808B91420A6E0A42200216846B0
:1013E00019F008FFADF80060DFF86C64F078F27B6C
:1013F00027998DF804004908307C8DF8A000530827
:1014000002F0010040EA410121F0020103F0010372
:1014100041EA4301100921F4807100F0010041EA22
:101420000021500921F4007100F0010041EA40213F
:10143000900921F4806100F0010041EA80219208C6
:1014400021F0040102F00102707C41EA820127913F
:1014500002280CBF012000200DF1260778741AF035
:10146000F7FF412807DB707C00B108209DF8991038
:1014700008438DF89900F07CB8B10121B97420229D
:1014800006F188010DF1390019F0BEFE202206F1A7
:10149000A8010DF1590019F0B7FE202206F1C8018C
:1014A0000DF1790019F0B0FE00E0B874707B8DF892
:1014B000050090B1DFF8B473102207F110010DF1AF
:1014C000060019F0A1FE9DF89900082805D1102208
:1014D00039460DF1160019F097FE307B8DF8260085
:1014E00030B11022DFF888130DF1270019F08CFEBF
:1014F000307948B1022D18BF032D03D1279840F051
:1015000002002790012100E000219DF8990001438D
:10151000B0788DF8991000B1042001438DF899102E
:10152000684621461AF090FF29B0F0BD2DE9FC4134
:10153000904600F022F80ED10027DFF81C53E9791D
:10154000F8B2884216D242462146FFF78CFC00B121
:1015500000267F1CF3E71AF087FF50B100F013F864
:1015600040B99DF8040042462146FFF77CFC002666
:1015700000E014263046BDE8F68115264FF6FF72CE
:1015800090420C467047002100910023417901AA46
:1015900001F00101801D0EF03FB970B504460D4603
:1015A00006204543082B88B0164603D1300758BFA4
:1015B000223500D521351C220021FFF7A8FE01AA03
:1015C0001C21284618F0BEFA80B99DF81E00C01FE5
:1015D0000A280BD29DF830000090F20801AB02F00F
:1015E000010206F0010120461AF085F808B070BD2E
:1015F00038B51AF025FFFFF703FE0CE000F00FF8F6
:1016000019F070F828B9286A00EBC40188791AF03B
:1016100013FF641CE4B2E8798442EFDB31BD286A31
:101620000622FF2100EBC4007047F0B5914E04463E
:10163000706885B04FF6FF7538B9009602238E4A60
:10164000294601201AF0F4FE7060716819B3022275
:10165000FF2002920023039001930DF112073288BC
:10166000009704AB204606F0F3F860B99DF810002F
:101670009DF8111000EB0122100004D07068418920
:101680002046FFF7C4FB32887068002329461AF011
:10169000CBFE706008B9012000E0002005B0F0BD6D
:1016A0003EB50C46002501460095002301AA2046C0
:1016B0000EF0B2F838B99DF80400FFF709FDC00636
:1016C00001D401203EBD00203EBD2DE9F0416B4F0D
:1016D0003C6806468846154603E02089B04224D07F
:1016E0002468002CF9D10C2019F07CFF040019D0DB
:1016F000268184F80A8000202060E07245B108212C
:10170000284619F0EBF9606018B900F029F80AE0F2
:101710006060396811B93C6004E00146086800283F
:10172000FBD10C600CB9152018E01AF079FE08B155
:10173000002013E00120E0722A4641463046FFF7C0
:1017400042FE04464448C06900281CBF4368002B81
:1017500003D000220021304698472046BDE8F081A2
:10176000204619F047BF38B505464448046803E0F1
:101770002089A84204D02468002CF9D1012032BD70
:10178000E07A012807D100F05CF820B132480078F7
:1017900004210DF057FAE17A491CE1722846C9B2DA
:1017A00000F002F8002032BD38B5022904462A4D67
:1017B00002D003290DD01EE042F6C921FFF7E2FA5C
:1017C00002001CBFE869002818D04368B3B10521A6
:1017D0000CE042F6A621FFF7D5FA01001CBFE9692B
:1017E00000290BD04B684BB102460421204601B0C2
:1017F000BDE830401847BDE8324000E031BD10B5CB
:101800001E4A1468002101E0214624686CB1238936
:101810008342F9D1206800290CBF1060086060681D
:1018200008B119F0E7FEFFF79BFF002010BD02464C
:1018300004201249096819B10B899342FAD1C87A78
:1018400070470E48006828B1006818B1C17A0029B5
:10185000FAD1704700207047B41C0020680F0020A8
:101860006E410020044100206D410020583E0020C0
:10187000883E0020AC40002064E6010008410020C2
:1018800038B584B004461AF0EFFD0622417901F024
:1018900001018DF80E10811D02A819F0B5FC002081
:1018A000009000239DF80E1001AA02A80DF0B4FFCD
:1018B0009DF80400FFF7A8FC0546052120461AF014
:1018C000ABFD284605B030BD2DE9F84F012016F0DC
:1018D000CFFE012816D1DFF8E866307800211AF033
:1018E00097FD040004BF002017F0DEFE00202072E8
:1018F000201D0FF097F905F081FD050003D181202F
:101900001AF082FD57E301206871072013F065F893
:10191000DFF8B096DFF8B02699F80100401C89F88E
:101920000100A879A0724020317811700DF030FCD0
:101930002860616D4A78206DD10620D5816C0A68D7
:101940001179032908D0816C0868007903280CBF3D
:101950000120002017F0A8FE206D816C0A6890F825
:101960006C0002F1080701281CBF002017F09CFE44
:10197000216D486F296800F5B060C8604EE0C16E07
:101980000A681179032908D0C16E08680079032814
:101990000CBF0120002017F087FE206DC16E0A6881
:1019A00090F8980002F1080701281CBF002017F0EA
:1019B0007BFE216DB5F87401D1F8A0202968DFF80D
:1019C0000C36CA6097F82660DFF80426032E1FD86D
:1019D000DFE806F002061014C86800F5B06002E007
:1019E000C86800F53470C86005F59A7011880187E1
:1019F000108811E0C86800F5355002E0C86800F6AC
:101A0000B870C86005F59A7019880187188803E0D6
:101A1000CA6802F5B062CA60A5F874010622286897
:101A2000C16801F59071C160B91C3878C0F38010AD
:101A300085F82E0105F5947019F0E6FBA87919F0E8
:101A400089FD060004BF002017F02EFE94F8B900AF
:101A500086F83A000422DFF87C6507F10E0105F1F3
:101A6000240019F0D1FB336803F10C00AB79042298
:101A700007F10E0100EB431019F0C6FB032207F13A
:101A8000120105F1280019F0BFFB3068AB7900EBBB
:101A90004313032207F1120103F1100019F0B4FB04
:101AA00005F12C08787D88F80200022207F1160162
:101AB00005F1300019F0A8FB022207F1180105F129
:101AC000320019F0A1FB022207F11A0105F13400DE
:101AD00019F09AFBB8F808006884022207F11C018B
:101AE00005F1360019F090FB98F80200B8F80A10DA
:101AF000400088F802000901B8F80400A8F80A10AC
:101B00004000A8F8040089B2B8F806004000A8F820
:101B1000060003046A8C521CDB0B5A438A4201D232
:101B200080B238B9DFF8B004007880210DF08AF86F
:101B30003B2139E105F12E0128461AF061FC052010
:101B4000A88128461AF058FC052207F11E0105F16C
:101B5000610019F059FB97F82300400988F800004C
:101B60001AF046FC688205F59A72618D401AD080A1
:101B700005F1610197F8230000F01F0088F80F00BD
:101B800028461AF031FC616D4A78206DD1064CBFB1
:101B9000816CC16E0868DFF84474002101714FF058
:101BA0001C0AA97938681AFB01F141F62102425258
:101BB0000021AB791AFB03F303445980AA791AFB7D
:101BC00002F210444160616DDFF814044A78D106D6
:101BD0000DD5DFF810148A7853060AD5DFF80824EB
:101BE000118841F20A42914208BFDFF80004C5F8AB
:101BF0009C01D5F89C11284688473B68A97903F1D8
:101C00000E021AFB01F150543A68A87902F10E0154
:101C10001AFB00F28B5CDFF8D81309680B54A97922
:101C200038681AFB01F101440020C87398F80C10C1
:101C300088F80D10606D4178CA061DD595F896019B
:101C400008B917F031FDA97938681AFB01F1014490
:101C500095F89601421E0A74A87939681AFB00F0BB
:101C60000844002141743A68A97902F112001AFB74
:101C700001F1002242522BE0A97938681AFB01F1E8
:101C80000144206D90F840200A74A87939681AFB45
:101C900000F00844216D91F841204274206D3B68AA
:101CA000AA79403003F112011AFB02F243888B52E9
:101CB00005F5CB710078012200F0030082400A7024
:101CC000226D92F84000800814BF012002200871A4
:101CD0003A68A8793368DFF81CB302F114011AFBE3
:101CE00000F203EB40108850A87939681AFB00F025
:101CF0000844C1498161DBF814000078C1074CBF7A
:101D00001F200F20DBF8141009788A0748BF40F025
:101D10002000DBF8141009784A0748BF40F0400063
:101D2000DBF8141009780A0748BF40F080003168DA
:101D3000AA7901EB421318723068A97900EB4112BD
:101D40000B2050723168AA7901EB42100421AB4A92
:101D500081721378012B06D13068A97900EB41120A
:101D60000120D07207E0DBF824003168AA794078BE
:101D700001EB4213D8723168A87901EB40121F21A0
:101D800011763068AA7900EB421100204876A879D4
:101D90000DF0DEF8AA79316852018850AA793168CD
:101DA0005201885820B90721284617F08FFE02E11A
:101DB000934AA979106800EB01101AF011FBA87979
:101DC00031688F4B01EB4012196801EB0010506035
:101DD000A979306800EB41125168C8F83C10AA7923
:101DE000520181587C48C8F84410042100780CF056
:101DF00029FF616D4A783868D10648BF02210AD4AC
:101E0000A9791AFB01F101440A7C02F00302022ABB
:101E100014BF04210621B8F8042095F806C04FF439
:101E2000C8738A18698AAA615143B1FBF3F35B1C3A
:101E30006B611AFB0CFCD5F800E06044DEF80CC0C6
:101E400040F6C41101FB02C2D21AA2F5A862826058
:101E5000AA7938681AFB02F283189A682B689A608C
:101E600000F10C03AA791AFB02F20C309B5C03F020
:101E7000EF038354A8793A681AFB00F002F10C03CF
:101E80000C321B5C03F07F031354A8793A681AFBE9
:101E900000F002F10C030C321B5C03F0F00343F082
:101EA00002031354AB7938681AFB03F31844427BDE
:101EB00002F0F00242F001024273AA7938681AFB7C
:101EC00002F2024490682B68186132686B6998F8D6
:101ED00002C002F11400AA795B00520111FB0C331D
:101EE00003F5F663835095F8960104280DD1306808
:101EF000AA7900F114034FEA421C143053F80C2065
:101F0000AB795B0102F56162C2503068AA7900F1D9
:101F100014034FEA421C53F80C20C5F83421AA7967
:101F200000EB4210C37C03F0F00343F00403C374DE
:101F3000DBF830003268AB79006802EB431CB8F87C
:101F4000062042436423B2FBF3F35943A1F59661A3
:101F5000CCF81C103068A97900EB4110C27E02F069
:101F6000F00242F00402C276A97938682A681AFBA6
:101F700001FA00EB0A01516095F8FD00010703D555
:101F80000E21284619F0BEFB1E4907200870204686
:101F9000AA7989F8022015F0DFFE1B4881788807AE
:101FA00004D5AA79002120461AF016FA28681749A4
:101FB000174A41618261BDE8F14F19F0ADBE00BF23
:101FC000D50F0020780E0020D70F0020900F0020A2
:101FD0008E0F00209C0E0020C70F0020980E0020BE
:101FE00081010210C00C00209A0F00204DE5011065
:101FF000F440002040DC0100980C0020CC0F0020B1
:10200000A40E0020C80F0020200E00204DCC0000A0
:10201000020480802DE9F04F054687B0A978DFF8EB
:10202000E866002710294FF0060A3CD8DFE811F0D7
:10203000110067036703670367033C00CB00670376
:102040006703C6021101FC00170367039802DD0253
:102050005F036878002826D11AF0BAF904461AF00E
:10206000B3F9054617F0DEFA8DF80000224610217C
:10207000022017F07BFD2A461021032017F076FD81
:102080006A460121042017F071FD9DF80000012827
:1020900018BF032807D1012013F08CF8024606214F
:1020A000062017F063FD2AE368780028FBD195F835
:1020B0000CB06C8900900023E97801AA01F00101BD
:1020C000281D0DF0A9FB00284FF0010871D19DF8E3
:1020D0000400FEF7FDFF8146BBF1080F08BFB846BC
:1020E000307A800019F07EFA050003D1042017F041
:1020F000DBFA04E3707802280CBF01200020009076
:102100005B469DF804104A462046FFF746FA142223
:10211000002102A819F06EF89DF804001AFB00F0E7
:1021200002AA1021243017F00DFDA8B91022FF21BA
:1021300002A818F0D7FA78B99DF804001AFB00FA43
:1021400006AA04210AF1250017F0FCFC02AA09F0F6
:10215000010120461AF034F9317A9DF804002A462C
:102160008900E03017F0EEFC98B92846FEF716FF1C
:10217000BA4609E005EB8000018819B18278204653
:1021800018F083FA0AF1010A317A5FFA8AF088427C
:10219000F0D3B07A30B95FEA897003D53178204640
:1021A00017F080FC9DF80400FEF7CAFF284619F0DE
:1021B00021FA7078022805D1B8F1000F02D020462C
:1021C00012F0DEFE9BE2A888FFF719FB1AF0F4F884
:1021D0000028F7D1F07D012808D1FFF701F8F27946
:1021E000706AF775002119F005F817E0307E0128B4
:1021F00003D1FFF79DF8377610E000240AE0706AFB
:10220000E5B2415D012904D1E0B2FEF7FDFF716A3C
:102210004F55641CE0B2F1798842F0D3502018F099
:10222000F7F9FEF769FF6AE21AF0FAF800280CD015
:10223000F06900281CBF0468002C07D028690090B2
:102240006B7B2A7B6989E81CA04757E268890121DA
:102250004AE268780024002840F0DA80A879C107B3
:1022600040F1D6800822002105A818F0C3FFA888F5
:102270001AF0FAF8040000F08E806F694FB306225E
:10228000002107F1110018F02DFA68B31022002187
:10229000384618F027FAD0B9387C00F001084FF022
:1022A000000909F1010987F811900020009000232E
:1022B0000022414607F111000DF0AEFA00285FFA46
:1022C00089F002D10028ECD101E000280CD10020D7
:1022D00068610622607900F001008DF81A00A11DE6
:1022E00005A818F091FF1FE06F69EFB1387C00F08E
:1022F00001008DF81A00062207F1110105A818F057
:1023000083FF6079012805D10622A11D04F10C008C
:1023100018F07AFF062207F11101A01D18F074FFD2
:10232000387C40F002006071A879410720794CBFE9
:1023300040F0020000F0FD002071A9790A0754BFA7
:1023400000F0DF0040F020002071A8799DF81B10FC
:10235000DFF8B883800800F0010008438DF81B0007
:102360004FF0FF09A979C90801F0010140EAC10055
:102370008DF81B00FF2469691E2779B31022684677
:1023800018F042FF102168461AF012F84FF0000BC7
:10239000DFF87C930CE0FFF754FA0028D5D03078B2
:1023A00004210CF04FFCD0E70BF101005FFA80FB39
:1023B00099F80000834510DAD8F8001017FB0BF0ED
:1023C0000A5CFF2AF0D0084400F10D011022684693
:1023D00018F076FB0128E7D15C46A146002000906A
:1023E00000239DF81A1004AA05A80DF015FAB9F1FA
:1023F000FF0F5DD034285BD1707D30B3012857D1F9
:10240000A88805211AF008F80124A888FFF7F7F931
:1024100068780B2804BFA888FFF732FAF069002813
:102420001CBF4368002B0FD06A78A8880121984709
:102430006878002808D1A879C10705D52246F46933
:10244000A88863680321984751E1D8F8000000216B
:1024500017FB09F90091002310F80910401C04AA89
:1024600048440DF0D9F918BB9DF81000FEF7CCFEDA
:10247000F0B9FEF741FEFEF791FE8DF81000E86816
:1024800000280CBF002101690022019003920291F3
:1024900005A9686900902B69AA689DF81000FEF7ED
:1024A00091FD0446A888FFF7C0F8200046D14BE014
:1024B0000020009000239DF81A1004AA05A80DF032
:1024C000ABF920B1FEF76AFE8DF8100019E06869DB
:1024D000B8B19DF810001AFB00FA6A4610210AF103
:1024E000230017F02FFB60B91022FF21684618F077
:1024F000F9F830B99DF81A0005A900F0010019F0AB
:10250000ABFF9DF81000F179884227D2E8680028D7
:102510000CBF00210169002201900392029105A9DC
:10252000686900902B69AA689DF81000FEF74AFDC3
:102530000446A888FFF779F8200005D09DF8100020
:10254000FEF762FEFEF7D8FD200008D1707A002861
:10255000A8887FF45BAFFFF706F959E7152454E725
:10256000687806281FD1A88819F07EFFD8B1317D80
:10257000491E032917D8DFE801F0020E081341793C
:10258000A8880022FFF7A1F80DE00022002140F208
:10259000094003F08DF9A888052119F03DFF02E0FC
:1025A000A888FFF76DF9F06900281CBF4368002B6D
:1025B00003D06A78A888022198479FE000970023FB
:1025C000E97801AA01F00101281D0DF025F9002884
:1025D000F3D19DF804001AFB00FA05F10C02042166
:1025E0000AF1250017F0C2FA88E0F06900281CBF44
:1025F0004368002B03D0A8880022002198477078F8
:1026000010B9A88805216FE0A88819F02DFF0400F3
:1026100075D0A87AC10712D50097002361790022EE
:1026200001F00101A01D0DF0F7F800281EBF607930
:102630000028012803D0E868C0F3402028B1707C4E
:10264000022807D1A87A010704D4A888032119F029
:10265000ABFE54E06179A88805F108022CE02F7BDD
:10266000AD88284619F000FF040047D019F0D8FEC5
:10267000002843D100900023617901AA01F00101F3
:10268000A01D0DF0C9F850BB9DF80400FEF720FD19
:10269000FF280ED0790700D4B8B107F00C07042F3B
:1026A00011D0082F0BD00C2F0FD100F009010929F0
:1026B0000BD0617900222846FFF707F81EE010F0E2
:1026C000090F02D1F5E7C107F3D501220092A37CDF
:1026D0009DF8041002462846FEF75FFF0EE0707872
:1026E0000028E6D10521284619F05EFE06E0FFF736
:1026F000A8F818B1307804210CF0A4FA0127384664
:1027000007B0BDE8F08F00BFB41C0020680F0020A8
:10271000684100202DE9F04F85B00D460295044632
:1027200015F8011B8DF801100022DFF8E4148878F9
:102730008DF8002004F1660B18F00CFF01902C219D
:102740009DF80100DFF8CC24032804F1F40604F519
:10275000B07A04F59C7704F5C87804F2171900F0F4
:10276000E180072800F01382082818BF092811D03B
:102770000C2800F0D7810F2811D0112800F04481D7
:10278000182800F092811A2800F057811B2800F0C9
:102790007C811AE22946204612F058F815E2707A38
:1027A000DFF8748481070AD40F2089F802002046DC
:1027B00019F0F6FD002872D198F80000DCE12878C5
:1027C000697800EB01223A82A878E97800EB0122CF
:1027D0007A822879697900EB0122BA82A879E979AD
:1027E00000EB0122FA82297A3976687AA97A00EB1D
:1027F00001227A83E87A297B00EB0122BA83687B85
:10280000A97B00EB0122FA83E87B297C00EB012203
:102810003A84687CA97C00EB01227A84E87C297DDB
:1028200000EB0122BA84687DA97D00EB0122DFF86C
:10283000EC03FA8401788A0658BF4FF01A0A13D5C0
:1028400004F5AA700490798B0391387E0290218957
:102850000191F88A0090BB8A7A8A398A204619F059
:102860009BFDE8B14FF01E0A707A41070AD40F2091
:1028700089F80200204619F093FD00280FD198F83E
:10288000000079E152460F21204619F081FDF88AB7
:102890000090BB8A7A8AA179504613F059F972E107
:1028A00004F18600798A81800023BA8AC2800222DC
:1028B000F98A018102704380A18EC91DABF81E10F8
:1028C000628E8188B1EB520F02BFC188A28E914205
:1028D00002BF0089E18EB0EB111F21D09BF81000E0
:1028E000012804BF9BF811000F280CD09BF815009D
:1028F00000281CBF9BF811001A2804D00F218BF868
:102900001A10FE217CE0FC21204618F0FBFEF88A1C
:102910000090BB8A7A8A398AA07919F035FD32E1B4
:1029200010216DE0707AC10709D431781A2001298D
:10293000707002D1FF220D213DE00D2160E00020EA
:102940008BF800008BF8060001223271294608221C
:1029500004F1B00019F014FD0146022204F1B800A0
:1029600019F00EFD04F1A80701460822384619F0B7
:1029700007FD05460821384619F01AFD04F19C07A9
:1029800004222946384619F0FBFC0421384619F088
:102990000FFD04F1A00019F0EFFC04F1980019F00C
:1029A000E7FC9F48018841F08001018030780128D0
:1029B00005D1FF220421204619F0D6FCE3E09BF864
:1029C00011600F2E18BF142E07D00E2E18BF0C2E1C
:1029D00003D01A2E18BF162E11D19BF81070FF22AB
:1029E0000421204619F0C0FC012F06D18BF81A6093
:1029F0001A2E14BFFD21FB2102E0314600E0042124
:102A0000204618F07FFEBEE028788AF800001A28D9
:102A10006B788AF8013040F0D8801668A379701C72
:102A20004B430026C6541068A27911FB02F1014401
:102A30000E71A1799AF80100C0E0A77910682B788F
:102A40004F43074403F01F0617F8210F9B0938B1C5
:102A50007878D840C00703D598F80600042805D137
:102A600020221A21204619F093FC8CE0FE70106899
:102A7000A27911FB02F10144204681F823300021A4
:102A800019F009F90028F0D174E0A37910684B43DC
:102A90000344D88808B900265E701068A27911FB3B
:102AA00002F10144002008716DE0687829788142C4
:102AB00004BF014011F0070F6DD19BF811001628DB
:102AC00006D198F80620A179134600200BF05EFE8F
:102AD000022188F80210012001994877012398F813
:102AE000060098F80A1088F80000BAF81C2019F0BF
:102AF00037FC0146BAF81800884208D3BAF81C20FF
:102B000098F80A1098F80000012319F029FCAAF897
:102B10002E00012198F8080040F0400088F80800D5
:102B2000397030E0707E012810D015F8011B317724
:102B30000222294604F5897019F022FC014602227E
:102B400004F58A7019F01CFC012070769BF80600D1
:102B500030B93D21012289F8011089F8002012E0E6
:102B6000F07E002804BFB07E00280CD1204619F06A
:102B7000F3FB30B9284800784FF480410CF062F83C
:102B800001E00120F07601218DF8001021E02B7882
:102B90000F2B16D01A2B18D1A37910684B4303447E
:102BA00000205870A379126811FB03F111440871D9
:102BB0001A20F17A01F0FB01F172A17909F04BFEC4
:102BC000E1E7707A00F0FD0070722046029919F07A
:102BD000BFFB9BF811001A2815D19BF8120017288B
:102BE0001CBF1028FC280ED19BF81060204619F05D
:102BF000ABFB012E03BF1A208BF81A00FB211A2110
:102C0000204618F07FFD9DF8000005B0BDE8F08F6C
:102C1000780E0020DC400020C70F0020200E00208E
:102C20009C0F00202DE9FE4F044600200090002557
:102C30000CB916F039FD04F1500641F6230037684F
:102C4000022238803A737A737D80694620460CF000
:102C5000DFF908B9072052E2009901B1B860B868FD
:102C60002061DFF8A004017884F8B8107068407A19
:102C700014F090FA25302076B873FD737168087DE2
:102C8000022804BF002016F00FFD7068007D0128A7
:102C900002D10020002104E083280CBF062002207E
:102CA00020213874797404F12409DFF85C84D8F8A1
:102CB0003C004169086899F8051001EB410108449E
:102CC000B0F801207A827068417848060AD5607DA4
:102CD000C10604D5E07F40F04000E07702E040F01C
:102CE0004000607507F15C0A04F130008AF800507A
:102CF0004FF01E0B99F81A10890001F004018AF8B0
:102D00000010B866607DC10653D5726851788A0696
:102D10000BD500F0FE0060757068417811F0030F6C
:102D200003D1E07F00F0FE00E077607D19F008FB42
:102D3000A0750023387CA27DC0F38001521C00F0F6
:102D4000030019F0F9FAA0831E22A18B01F59B70F4
:102D500090FBF2F20BFB1200C0B208B1C0F11E00F2
:102D6000411801F59B7161831E22A18B01F59671BB
:102D700088B290FBF2F20BFB1200A183C0B208B143
:102D8000C0F11E004018A08380B2E27D618B521E0C
:102D900050434018608307F13005608BB4308000E9
:102DA000386606208AF80300E17F41F00801E177E8
:102DB00020E040F00100607571684A78510744BF17
:102DC00040F002006075607D19F0BAFAA07500232A
:102DD000387CA27DC0F38001521C00F0030019F082
:102DE000ABFAA083A08B00F59670A0830020386614
:102DF0008AF80300A07D217D60F3050107F18800BA
:102E0000217501700322617D4170827099F81A105A
:102E1000890001F0040141F00301817099F81B2041
:102E2000D20002F00802114381700021C17000201D
:102E3000C7F89000B9F81C00C0F30B00A9F81C00FB
:102E40007168CA7D40EA0230A9F81C000022617D49
:102E500001F0FE0120460BF00BF8002601971EE062
:102E60001C2010FB06F0271801991C2207F16400B2
:102E700018F0CAF907F16C0005210171761CA28BCC
:102E800092000260F6B2D8F83C104A69116899F8CD
:102E9000053003EB43031944B1F801204281E07D82
:102EA000401E8642DCDB019F20460EF0DDFFE07D08
:102EB000012804F1500608D010D3032807D03EBFE4
:102EC00004F164007860B56108E07D6006E004F11B
:102ED0006400786004F18001B161756341F62400FB
:102EE00038860021798607F13C05B868618B00EBD4
:102EF0008100B8630221822028706970002194F853
:102F00002100E97000F03F00A8707068807D012802
:102F100018BF022803D100F07F00401E04E0832880
:102F20000CBF06200220202128716971D8F83C00CE
:102F30004169086899F8052002EB42021044B0F894
:102F40000110E9800020F8667168487810F0030FDE
:102F500020D019F0EDF9F866D8F818000078C1070C
:102F60004CBF1F200F20D8F8181009788A0748BFD7
:102F700040F02000D8F8181009784A0748BF40F000
:102F80004000D8F8181009780A0748BF40F08000C0
:102F90008AF8140000208AF8150071685B4A887C62
:102FA00000F003008AF8150099F81A10890001F062
:102FB000040108438AF8150099F81B10C90001F0B4
:102FC0000801014341F010018AF81510107838B15A
:102FD0009AF8140000F0FE0041F040018AF8140055
:102FE0008AF81510E07F19F0ABF984F8200020462C
:102FF00019F09AF9E07FC1063BD5706894F820205B
:103000004178521C88074EBFD21E99F81F00121833
:103010002879C0F380010023D2B200F0030019F038
:103020008BF9A9F80000B9F8000000F59670C0F11E
:103030001E0190FBFBF00BFB001B89F804B07168CC
:10304000487881074CBF00204FF49B70B9F80010FE
:103050004018A9F80000A9F80200B86BB9F80010F0
:1030600099F804205218A63200EB820078670220FB
:1030700001E0002078678AF8170004F13000C7F8F3
:10308000800007F1840071684A78510707D504F180
:10309000380202609AF8150040F0200007E01C4951
:1030A0000A68516801609AF8150000F0DF008AF89C
:1030B0001500A17F94F8200060F30501A17740F688
:1030C0000B00288200216982D8F83800008880002F
:1030D0007865D8F83800008800B1072028770220EA
:1030E000687794F84510E98370684178880744BF91
:1030F0000121E983009808B10AF03AFB0020BDE8FD
:10310000FE8F00BF6441002040DC0100880E0020DB
:103110006C0F00202DE9FE4FDFF844B4DFF8447453
:1031200005469BF8000000284CD0052872D00628E0
:1031300000F07F80072818BF082800F0F5800A28D3
:1031400000F0E281112802D013286FD000E2DFF8EE
:1031500018241078002119F05BF904001EBF606D7F
:10316000407810F00C0F2DD0216DC0064CBF886C3C
:10317000C86E016801F108050622A91C684618F00E
:1031800043F8287800F00F0105291BD1450969464D
:10319000C0F3801019F0C4F8002813D039686846CD
:1031A00019F0BAF80646396804F1380019F0B4F895
:1031B00086420DD0606D4178C80604D440F20140CB
:1031C00019F0A6F8CAE1607B40F002006073C5E127
:1031D0003B681E204643981906226946C01D18F018
:1031E00013F8606D4178C806F1D5A17B0129EED1B5
:1031F000DFF878038178480605D5E90703D4206D08
:1032000041F20A4102E0206D41F2044141804183D4
:103210004186A3E118F039FD0028FAD110F016FA22
:10322000012802D0012019F06FF897E112F093FB0A
:1032300094E1DFF83C53286819F062F80400F7D0F5
:1032400020790328F4D1207A00F00F01072938D122
:10325000DFF8202311684869407A421E10425CD092
:10326000607A04F10A031A5C02F03F02252A54DB5B
:10327000A07A8209012A50D110F03F0F4DD0087C6E
:1032800017F0AEFFE17ACA074CBF04F1110204F156
:103290000B028B0748BF921D0B0748BF921CC90643
:1032A00048BFD21C1278520916214A43B2498B18E2
:1032B0000A31EB608A5A428699898186DA89C28608
:1032C0002BE000F00F00082827D1A07A810924D133
:1032D00018B3A8480168087C17F082FFE17A064617
:1032E00088071AD5062201F001015143601800F148
:1032F0000C01684617F088FF207AC009694619F06A
:103300000FF850B1386800F10D01684618F0F4FF6D
:1033100018B90521304616F0D9FB2079032802D0D0
:10332000002016F0C1F90FE1944FB8780024FF286F
:103330001BD017F055FF804608F16C09D9F804003E
:1033400018F0DEFF2A460179032901D011000CD0C4
:103350008368197801F003008D06009003D50124DD
:10336000009818B9CDE01000FAD0F7E05D7803F1CD
:10337000020A34B31AF8010B814B01902C2098F803
:1033800006C01E6810FB0CFC66444FF0010E86F868
:1033900005E0002A1E6898F806E006F11A0C019E66
:1033A00010FB0EFE06F01F060CF80E6098F8066083
:1033B0001B6810FB06F01844019BC3F38113C3760E
:1033C0001AD10098032808F217161AD0ADB199F84F
:1033D000000068B108F1F4000278012A0DD19BF8D1
:1033E0000020072A04D0082A04BFC078012804D18D
:1033F0003D21717001233370B0E062480278012AE8
:10340000FAD098F8940000283CD030782D1F01287D
:10341000EDB2F1D053462A46404615F0F1F80028A7
:103420001EBF59490878002813D13D217170012031
:10343000564A3070117801290AD1554C20784FF442
:10344000805115F085F920784FF480510BF0FAFB8C
:1034500084E050490868804701904FF4D07098F894
:103460000620796842438818002180F8411108F548
:103470009E700168807949080FF05EFF464A019806
:1034800011688847009803281DD04449486900788E
:1034900082070DD598F89400002814BF281D2846EF
:1034A0004A691178CA0748BFC01C1AF8000000E03A
:1034B000812089F808002A460098C3B2B87851469E
:1034C00005F0D2FC1DE09AF800001CB11B2804BFD7
:1034D000022D01251C2803D231490B5C9D4205D0E9
:1034E000B0700721404618F00DF90AE09BF8000083
:1034F00008285146404602D118F081FB01E0FFF751
:1035000009F9D9F8040020E0264C207830B3264D84
:10351000286818F0F5FE08B3017903291ED1017A55
:103520008A0611D5807AE178C0F38112914202BFF8
:10353000217900F01F00814206D1A078002801BF48
:10354000607800280121A170286818F0D1FE05E0FC
:10355000002016F0A9F8862018F056FFBDE8F78F76
:10356000C80F0020680F0020D50F0020C00C0020DD
:10357000BC0A0020540F0020E0070020780E002035
:10358000DC400020D20F002069410020880E00207E
:10359000C70F00209C260020A026002040DC010050
:1035A00034E0010050400020AC0C00202DE9F8432D
:1035B00005460C46480413D4A00024D4A0075CD4CC
:1035C00060057ED4200500F10681200700F13B81D3
:1035D000600040F1F68010F0A9FF24F08044F0E094
:1035E00018F0E8F8DFF81C140F6D3FB1D7E90A12A4
:1035F00002F0E04201F00A01891849D018F098FA67
:1036000024F48044DDE0BB48DFF8FC73016841F03E
:1036100080010160B878012804D1042015F0A4F9D4
:103620000020B87018F0C6F80646042018F0ECF830
:10363000DFF8D8130A68904219D12A7EBAB1FA6825
:10364000AAB1DFF8C003806C002800F09780C16841
:1036500040F603020988914206D0C06840F6040192
:103660000088884240F08A8005F1140088E040F626
:10367000C4120860C5E9042284E007F013F9DFF8FA
:103680008403006C002840F09D8024F0020498E040
:10369000D7E90A65D7E90A12AA43B143C7E90A1272
:1036A00018F046FAB8680028AAD056EA0500A7D054
:1036B000D7F808C03869B7F9301032462B46E047D2
:1036C0009EE718F077F8054616F0F8FB002800F0A2
:1036D000B780CC48876B002F00F0B280DFF82883DA
:1036E0000420CB49002288F81800C64817F00FFCC8
:1036F00018F03FFAC74818F00FFAC7480068006B87
:103700008047C8F810000125042088F8025015F001
:10371000C3FB386990F82810C8F80400490703D59E
:10372000436A042100229847012011F007FFD8F8CE
:10373000040045760DF040F8D8F8040081680B4687
:103740001A465B684BB11E88A6F60306072EF7D80B
:1037500005FA06F616F0830FF2D0537B03F0F00360
:10376000013353730023FD6853602D88A5F60305CC
:10377000012D00F28A80C8F810309FE005F110009A
:1037800013F092FB304618F0D3F915F09DFB78B199
:103790002E6A28466FF4807100224FF00073B04704
:1037A0009848806B10B110F0C1FE01E044F00204B3
:1037B000EE692846002100224FF08063B04724F0D4
:1037C000005434B1974821462830BDE8F84318F03A
:1037D00084BABDE8F8838C4EB078012804D1042067
:1037E00015F0C2F80020B07015F06EFB38B17068AB
:1037F0006FF4807100224FF00073056AA8473069AA
:1038000050B185480068006B804732697168801A42
:10381000000BC860002030617A4D814900222846A3
:1038200017F075FB02203076286C20B17D4802210C
:10383000283018F052FA10F079FE24F40064C0E742
:1038400018F097F941E017F0B5FF054616F036FB82
:10385000A0B1DFF8B48198F8000000070ED498F901
:10386000000000280AD468460DF09CF808B10098C2
:1038700020B1DFF8B49199F8610048B318F079F9F4
:1038800010F054FE24F008049BE7034633F8385F39
:10389000A5B190F8445090F8456005F0F00580F827
:1038A000445006F0F005013580F84550002553607E
:1038B000C5634587507B00F0F000507357480022E5
:1038C000C2610160012016F053FD24F4806478E7A2
:1038D00000260127602E0FD009EB0600817A31B156
:1038E0008772407A07FA00F0C0B215F057F8203618
:1038F000F0E700BFCC210840032088F818004548B5
:1039000018F00AF918F035F9444F3E4D0022786955
:1039100000207861F968F8602846444917F0F7FA02
:103920003D480068006B8047D8F80C10D8F820207C
:10393000411A02EB1130B0EB113F38BF4FF0FF30AE
:1039400098F82410C8F8200021B1D8F80810B0EB7E
:10395000C12F20D916F01CFDB8B140F60900414630
:1039600021F83C0F002048804A7B02F0F00201322F
:103970004A730A7B02F0F0020A734860F86139600A
:10398000B8F83E0010F4406FFAD00020C8F82000CC
:10399000012088F8240012F0A1FF254800210160D1
:1039A0000220002116F0E4FC022014F0DDFF1020BC
:1039B0000CF0B6FB98F8010020B9D8F8040050309C
:1039C00018F087F91B48807810B90D200CF0A8FB7F
:1039D00098F8250028B1002088F82500052014F06B
:1039E000C3FF002088F818001348C8F81C00022004
:1039F000B5F85610B5F85420914208BF07200FF0D3
:103A0000DFFF3DE73022002030200020C4270020C7
:103A1000999E0100F83B00208C010010001004402A
:103A200059C9000068210020F838002091450100A4
:103A30000000046024E4010041C400002DE9F04FBF
:103A40000D46280589B018D5DFF8F4633088FF28C3
:103A50000ED0C0B217F0C4FB040009D0A079162123
:103A600018F042FC204617F0B1FB204609F0C6FBD7
:103A7000FF20308085F40060DFE1E80504D513F015
:103A800024F985F48070D8E1A80604D518F0CDF8A3
:103A900085F02000D1E1E8070CD517F083FD30B1A7
:103AA00000218160DFF89C03006800B1804785F049
:103AB0000100C2E1280704D518F0B9F885F0080024
:103AC000BBE1E8060FD500210022002306910592F4
:103AD00004910393029101920091022018F000FCDE
:103AE00085F01000A9E1A8070FD500210023069159
:103AF00005910491039302910191009101223C20D0
:103B000018F0EEFB85F0020097E168074FF01E0900
:103B1000CD4FDFF8388340F1D580CD4B18780021A8
:103B20000891079118F074FC0446CA488178FF296F
:103B300004BF002015F0B8FDA07A17F051FB06462F
:103B400098F8000096F82EA1002806F5947B72D014
:103B5000606D807A022818BF032807D138680D30BD
:103B600018F0BAFB10B93968C81D0790594650467D
:103B700018F0D6FB00283CD0606D807C3B680028A4
:103B800018BF012804D11946584618F0C5FB04E0B7
:103B90005A465146184618F06BFCFF284BD019FBCB
:103BA00000F93868484406225946C01D17F02CFB1E
:103BB000386810F80910484400F1010B41F0020A7E
:103BC000C01D08900AF0010186F82E110622594600
:103BD00006F5947017F018FBB07917F0BBFC0700DE
:103BE00004BF002015F060FD94F8B90087F83A0092
:103BF00021E05946504618F06BFBE0B138685A4650
:103C0000514618F035FCFF2815D019FB00F938682B
:103C100048440D3018F060FB58B9386848440D30FE
:103C200018F05AFB002801BF38684844417F012939
:103C300001D14AF0020A06F12C00534601780691A0
:103C40004289120905920122718C0491C088089959
:103C5000029140080390CDF800B007980190002031
:103C6000B17918F03DFBD6F89C017B4988420CBF26
:103C700000210121B07918F027FB7848B379026858
:103C80002C214B43134401221A73B37904684B432C
:103C900023445A73B37904684B4323449A73B3792A
:103CA00004684B432344DA73B379006811FB03F1D2
:103CB0000144002008740720B17910F00AFB85F058
:103CC0000400BAE028060FD50021002306910591D3
:103CD0000491039302910191009101223B2018F07D
:103CE000FFFA85F08000A8E0E8045DD55C493868FB
:103CF0000C680D3018F0F0FA002844D13868C11D66
:103D00000D3018F0DDFA3EE0606D4178480704F1AF
:103D10003E0626D5307802281EBF03287078012879
:103D200030D17178386804F1380218F0A1FB82466E
:103D3000BAF1FF0F15D0386819FB0AFA50440D305C
:103D400018F0CAFA68B938685044C11D0D3018F02F
:103D5000B7FA38685044C11D062204F1380017F044
:103D600053FA3078022818BF03280BD138680D3079
:103D700018F0B2FA30B93868C11D062204F13000DB
:103D800017F042FA2468002CBED13648D8F8042037
:103D900000784FF4805113F063FA10B18E2018F0C0
:103DA0008BFA85F4805048E0A80505D517F075FE1C
:103DB0002D4901200860FEE7680504D517F0DBFFF8
:103DC00085F4806039E0680405D5812018F074FA24
:103DD00085F4804031E0A9042ED5244C206810B130
:103DE000002015F061FC4FF0FF3020600020204CD7
:103DF0000EF0C2FE226852F8201F684688471D490F
:103E00001D4B086B4A6B0090019202936B46C86A87
:103E10001A491B4A07910392ADF810002668194908
:103E200034680968184A1948A0471949086003F01E
:103E30001DFF85F4005000E0002009B0BDE8F08FC0
:103E4000F2240020480F0020680F0020880E002078
:103E5000D70F0020780E00204DE50110DC40002037
:103E60004C0F0020C70F00207C052043380F002096
:103E7000200F0020C41F002085B501001EFB00801C
:103E800095B50100E8400020EC0A002048330020EE
:103E90001C0F00202DE9F84FDFF82854A9780024E2
:103EA000FF2904BF002015F0FFFBA87817F098F950
:103EB000054605F1680605F5C9773168086805F11A
:103EC000900808B1EC8311E0B07B002804BFB07EFD
:103ED00000280BD198F80010002904BF387800287A
:103EE00004D1287F012804BF688CE8832989E88BE6
:103EF0004118491C6981284618F0DAF901281EBFCB
:103F0000DFF8C4030178012903D12989EC83491C16
:103F100069814FF6FF79B07E01280DD1B28B698996
:103F2000288918F0C1F938B1298968894A1C93B2E7
:103F300098422FD0B08B23E098F8000001280FD1D1
:103F4000B8F802206989288918F0AEF940B12989AA
:103F500068894A1C93B298421CD0B8F802000FE05E
:103F60003878012816D17A886989288918F09CF94F
:103F700080B1298968894A1C93B298420AD078880E
:103F800092B2904206D04844688180B218F088F915
:103F90004844E883387801280FD128897988401C63
:103FA00080B2884209DB7C793C710220387023465C
:103FB000A979224600200AF0E9FB05F59A710879F3
:103FC00020B128890021401CE9836881B07E012846
:103FD00013D12989B08B4B1C9BB298420DD16881BB
:103FE00018F05EF905F12E02B6F820B0918801FBB9
:103FF00000BB28460EF0BAF803E005F12E00B0F839
:1040000004B0E88BB14B411C01FB0BFB2968CA686B
:1040100040F6C41808FB0B22CA60AD49DA7BD3070F
:1040200002D56B8A00220BE00A88521C93B2012B46
:1040300003BF05F59A7CBCF8063003F2DC536B8AAB
:1040400003FB0BF34FF4C87CB3FBFCF35B1C6B610D
:104050000A8085F82000C5F818B04FF01C0ADFF878
:104060007492AB79D9F8000000F108021AFB03F34F
:10407000D1582A68116100F10801AB79D2686869EA
:104080001AFB03F3121ACA50D9F80000AB7900F1F9
:1040900008021AFB03F3D1582A68916000F10C0260
:1040A000A9791AFB01F10C30535C03F0F00343F0E3
:1040B00002034354AA79D9F80030991C1AFB02F282
:1040C00000238B52387908B915F0EEFAD9F80020A0
:1040D000A97902F110003A791AFB01F15208425411
:1040E000A979D9F800001AFB01F1014400204874B5
:1040F0003979042914D1A879D9F800101AFB00F0F5
:1041000001F1100310311A5C3B7A42EA83020A542F
:104110002021AA79D9F800001AFB02F20244517456
:10412000D9F80020A97902F112001AFB01F100224E
:1041300042526949AA79086800F114034FEA421C07
:10414000143053F80C20AB79D5F814C05B0102EBA6
:104150004C02C250B07E02280DD10868AE7900F141
:104160001403760114309A59AB7995F82E605B01EF
:1041700018FB0622C25005F12E025448C37BD80713
:104180005ED5D9F80000AE7900F108041AFB06F6F6
:104190000830A359AC791AFB04F4A3F5A8630351C2
:1041A000D9F80000AC7900F108031AFB04F418599F
:1041B0002B6898600446494800FB0B4BC3F810B0CD
:1041C0000868AE7900F1140476011430A359AC7973
:1041D000640103F5F6630351387904280BD10868AC
:1041E000AE7900F1140476011430A359AC7964015E
:1041F00003F5616303510868AC7900F114036401AD
:104200001859C5F83401364B186B0C68AE79928892
:10421000006804EB461742436424B2FBF4F408FB45
:1042200004F0A0F596682F48C7F81C800278012A90
:104230002FD10868A97900EB41120120D0722FE03C
:10424000042C0BD10868AE7900F114047601143007
:10425000A359AC79640103F56163035138790428EB
:104260000CBF4FF4AA504FF4E6600B68AE7903F12F
:1042700014047601A359181A938808FB03F3A3F5D5
:1042800016739842BFD30821284615F01FFC012061
:1042900016E0586A0968AA79407801EB4213D8728F
:1042A000A879D9F800102A681AFB00FA01EB0A0075
:1042B000506007210C480170284610F0A1FD002035
:1042C000BDE8F28F780E0020D10F0020980C00205E
:1042D000BA400020980E00209C0E00203CF6FFFF04
:1042E00040DC0100CC0F0020C80F00202DE9FE4F5C
:1042F0000422FF2101A816F07DFFDFF8FC63B078EF
:10430000FF284FF0000800F0F58116F069FF054620
:10431000B07817F01FF9074605F217100178012948
:1043200008BF417800F06B8105F17406B07B02286C
:1043300017D1387FC0F3C00088B105F12E0005F118
:104340002E02018909090091D3888288A97952082F
:10435000002017F0A1FF387F00F0E700387786F8DB
:104360000E8095F89201022808BF85F89281307F6F
:1043700002280ED186F81C8017F05FFC012808D1B6
:10438000DFF87833A87919680A5C05F161010CF04F
:104390009BFF05F5927BBBF80E1019B19BF80C0042
:1043A0000AF050FC072010F018FB6889DFF8504332
:1043B0002881A27A94F807E0237BE17A607B02EB04
:1043C0000E09994489448144CDF80090B7F81EA0A5
:1043D000B7F820C0D644A7F81EE094F808E0E644F9
:1043E000A7F820E0B7F822C094F809E0E644A7F85F
:1043F00022E0B7F824C0B7F826E09444A7F824C018
:104400007144F984398D0B443B8505F58D73798DA5
:1044100009187985B88D21784118B985F88D6178AA
:104420004118F985388EA17841183986788EE1785F
:1044300041187986B88E21794118B986F88E61794C
:104440004118F986388FA1794118398705F58D71A2
:104450009888401C8880B5F81A310098C318A5F8D0
:104460001A3105F58D73588810184880DBF8000064
:10447000F8B1A44995F806E00B681C2103F10E0C75
:1044800011FB0EFE1CF80EC030F81CE000997144C0
:1044900020F81C101C2195F806C00E3311FB0CFCF3
:1044A00013F80C3000EB4300B0F84A105218A0F893
:1044B0004A2014F059FEE079DFF84C92002804BF3E
:1044C000E07A002805D1207B002804BF607B00280B
:1044D0003DD0A7F80E80C246F87EC0090DD0387FC7
:1044E00000F00701022904DA411C61F30200387769
:1044F00003E0A879002117F0CCFB2989E88985F829
:1045000010804118287FA981012804BF688CE883A6
:10451000A979012207200FF0DCFE607858B1012153
:104520002977B078002804BFB07B002803D1307F02
:1045300008B9688CE8839BF81400002868D002282A
:1045400004BFE07A00285ED18BF8148060E0A9797E
:10455000002207200FF0BDFEA5F81E80397F11F064
:10456000070F02D1F87EC00903D0A879002117F007
:1045700090FB287CA17A05F58D7261B14FF0010A9C
:1045800008B1E889A88185F81080287F012826D104
:10459000688CE88323E0D188491C4FF0020AD1805F
:1045A000E8B1D9F80000AB7995F82E7000F114014C
:1045B00068694FEA400C40F6C4105B0110FB07CC61
:1045C0000CF5F66C41F803C0D9F80010A87901EB9E
:1045D0004010C17C01F0F00141F00401C174A889D0
:1045E0002989814206D0884297D2081A41F2AB014C
:1045F000884292DA108800280CBF3E210821284604
:1046000015F064FA76E0607A10B102218BF814108C
:10461000E07BC1070ED520692968C86000F590705D
:10462000C860D9F80020A97902F1140049010022DC
:10463000425016E0D9F80000AA7900F114015201A5
:104640008858CBF810002F48AA7903681C2003F182
:104650000801424388582968C860A5F81E8085F87B
:104660001C802A4948690078810702D5A07B8028F0
:1046700000D181203070264991F8200018B12946D8
:10468000012017F0F6FA28460BF06AF802281CD130
:10469000F079022805DB01AA1E49284610F010FC1B
:1046A0008046284617F0F4FD012823D05FEA080071
:1046B0000DD0424601A9284611F01CF838B9284609
:1046C0000BF04EF8012802D114E0012812D001218C
:1046D000284617F0D9FD009881B22A46504608F0C6
:1046E00003FEFFF7D7FB012804D0284612F05DFE39
:1046F00017F012FBBDE8F78F780E0020F440002081
:10470000980C0020980E00209C0E002040DC010038
:10471000D43D0020EC2700202DE9F0410446FF287D
:1047200018BF20282AD117F017F910F01F0F22D038
:10473000042013F081FF08B1042016E0012013F0DB
:104740007BFF08B1012010E0022013F075FF08B1D3
:1047500002200AE0102013F06FFF08B1102004E0DF
:10476000082013F069FF20B10820BDE8F04113F0E4
:104770009BBF14F099FF0020BDE8F08113F094FF77
:104780005FEA000814BFD8F804500025012C46F257
:10479000A81740F6C4160BD0022C69D0042C00F0E8
:1047A000B880082C00F01281102C00F05981E2E74B
:1047B000012013F041FF00281EBFDFF86C030068E2
:1047C00000281CBF8788BF00102013F035FF18B3E6
:1047D000102013F069FF040002D066685EB900E0A3
:1047E0000026022013F028FF28B1022013F05CFFFE
:1047F000040018BF66686DB1012013F01DFF00288A
:1048000018BF002E06D0B068C11BA86815F0B0FE16
:1048100000282BD02046AFE7022013F00DFF38B15F
:10482000022013F041FF040014BF666800260AE06E
:10483000042013F001FF50B1042013F035FF0400F1
:1048400014BF66680026002DE4D0012040E1082056
:1048500013F0F2FE28B1082013F026FF040005D063
:1048600053E0012013F0E8FE002885D0404683E79E
:10487000022013F0E1FE60B1AC490A68AC49D0698E
:104880000A7802EB82028318D88806FB00F707F546
:104890001667042013F0D0FE38B1042013F004FF93
:1048A000040014BF6668002622E0082013F0C4FE4E
:1048B00098B1082013F0F8FE040002D06668BEB973
:1048C00000E00026012013F0B7FE88B1012013F0AC
:1048D000EBFE040018BF66680AE0012013F0ACFE8E
:1048E00050B1012013F0E0FE040014BF66680026FA
:1048F000002D8FD00220EBE0102013F09DFE30B190
:10490000102013F0D1FE0400B0D06068EBE002206C
:10491000A8E7042013F090FE58B186490A6886493A
:1049200050690A7800EB0213988906FB00F707F537
:104930001667082013F080FE98B1082013F0B4FE2B
:10494000040002D06668DEBB00E00026012013F000
:1049500073FEA8B3012013F0A7FE040018BF666819
:104960002EE0012013F068FE38B1012013F09CFE08
:10497000040014BF6668002622E0102013F05CFEDD
:1049800098B1102013F090FE040002D06668BEB902
:1049900000E00026022013F04FFE88B1022013F041
:1049A00083FE040018BF66680AE0022013F044FE8C
:1049B00050B1022013F078FE040014BF6668002690
:1049C000002D23D0042083E004204BE717F053F997
:1049D00008B1D0F89070042013F02EFE38B10420F6
:1049E00013F062FE040014BF6668002632E0012066
:1049F00013F022FE58B1012013F056FE002D04469C
:104A000004D0082013F018FE00286ED102E7102011
:104A100013F012FE98B1102013F046FE040002D0ED
:104A20006668BEB900E00026022013F005FE88B1DA
:104A3000022013F039FE040018BF66680AE0022065
:104A400013F0FAFD50B1022013F02EFE040014BF43
:104A500066680026002DD9D0082039E0082001E73B
:104A6000032017F00AF908B1D0F89870022013F06B
:104A7000E3FD38B1022013F017FE002D0446C5D027
:104A80001020BFE7042013F0D7FD38B1042013F045
:104A90000BFE04000CBF0026666816E0082013F029
:104AA000CBFD18B3082013F0FFFD040002D06668A8
:104AB0005EB900E00026012013F0BEFD28B1012000
:104AC00013F0F2FD040018BF6668002D9ED0102080
:104AD00013F0B2FD002818BF002E97D0B068C11B9C
:104AE000A86815F045FD002890D1BFE6012013F01D
:104AF000A3FDB0B1012013F0D7FD040014BF666818
:104B00000026002D05D0102013F096FD002818BFB8
:104B1000002E3FF47FAEB068C11BA86815F028FDD9
:104B2000E1E710209EE600BFF0400020500F00207B
:104B3000D80F0020540F0020D90F00202DE9FE4F80
:104B4000DFF890737E681EB9BDE8F74F17F098BB89
:104B50003078DFF88493DFF88453DFF884A30128EA
:104B600018BF02280DD0042818BF082809D0102823
:104B700018BF202805D0402818BF802800F0C98021
:104B8000A1E116F0EFFE0028FAD0012013F054FD49
:104B900020B1012013F088FD13F0FAFC082013F077
:104BA0004BFD20B1082013F07FFD13F0F1FC3078AD
:104BB000FFF7B2FD5FEA000814BFD8F804400024F4
:104BC0009AF8010000286AD017F0A2F816F008FB46
:104BD0000090006801904668009881798AF8031077
:104BE00014B94FF0020B04E00199404617F08EF81B
:104BF000834600985A46414617F043F8584502D07C
:104C000003283CD08346BBF1020F13D098F8000074
:104C1000012802D0082877D055E1BBF1000F05D15B
:104C200017F02AFB00F5E8504C30A0600120B87066
:104C300011216BE00198017880290BD10820A94946
:104C400028700A787069012A1ABFD9F824100978E7
:104C500001211DE0072028700099887916F07AFC60
:104C60000446207BC1070BD50098807916F0B8FA6E
:104C7000052114F02BFF207B00F0FE00207327E1BC
:104C800098480178706901291CBFD9F82410497827
:104C9000C1720098817901988AF802100FE1B8F189
:104CA000000F17D00122414616F0EBFF032808D071
:104CB00098F80000464509D1012818BF082801D1FD
:104CC0002CBB05E1002014F0EFFC20E0012802D00D
:104CD000082817D0F7E0002CF3D017F0CDFA0146E2
:104CE000A06801F5C241A83115F042FC28B917F0BF
:104CF000C3FA00F5E8504C30A06011202870012163
:104D0000B97004E0002CDCD0B87012212970404644
:104D1000D5E09AF80100002800F09E8016F0F8FF18
:104D200016F05EFA044620680090D0F804809AF8E5
:104D3000020016F055FAA0798AF803000222002139
:104D4000204616F09EFF022801D0032813D03078A9
:104D5000402811D1A07916F0FDFB0646307BC10733
:104D60000AD5A07916F03CFA052114F0AFFE307B8D
:104D700000F0FE003073ABE016F0EEFD10F01F0FF8
:104D800046D0012013F058FC20B1012013F08CFC18
:104D900013F0FEFB082013F04FFC20B1082013F0A5
:104DA00083FC13F0F5FBB878FFF7B6FC0646716894
:104DB0000191080008BF4FF0020B04D00099304663
:104DC00016F0A4FF834602220021204616F059FF68
:104DD000022803D003287BD0834602E0BBF1020FF8
:104DE00016D03078012802D0082864D00DE0BBF13D
:104DF000000F06D117F040FA019900F5E8504C3049
:104E0000886011202870012152E0002014F04CFC31
:104E1000009934480A78802A0DD108212970007839
:104E20000128D8F8140008BF01210FD0D9F82410A8
:104E30000A78C2720BE00721297000780128D8F89F
:104E400014000EBF0121D9F824104978C172A0794D
:104E50008AF80200009832E016F07EFD10F01F0F75
:104E600036D0012013F0E8FB20B1012013F01CFC28
:104E700013F08EFB082013F0DFFB20B1082013F0A5
:104E800013FC13F085FBB878FFF746FC0646307834
:104E90007468012802D008280CD019E0C4B117F0BA
:104EA000EBF900F5E8504C30A0600121112028708A
:104EB000B97003E064B1B870122129703046BDE8C2
:104EC000FE4F16F055BDBDE8FE4F002014F0ECBBC0
:104ED000BDE8F78F6840002040DC0100C80F0020CB
:104EE000780E0020CC0F00202DE9F04F8FB0074640
:104EF00018984FF0000E002A01938DF8200000F062
:104F000093810AA80E464FF0200A002400F1100CED
:104F1000CDF800C0114611F8010B25280E910CD0D8
:104F2000002800F07D81022EC0F01581013E002F87
:104F300000F0108107F8010B0DE15378901C0E90E2
:104F40002D2B07D14FF00109D01C93788DF80D90CF
:104F50000E9003E04FF000098DF80D90302B05D135
:104F60000121069110F8011B0E9002E01946CDF8C0
:104F700018E04FF0FF322A29CDF808E0049214D14E
:104F8000019D29680A1D2A60D1F80080CDF80880AB
:104F9000B8F1FF3F10F8011B0E9018DC4FF001092B
:104FA000C8F100088DF80D900FE04FF00008A1F156
:104FB0003002092A08D808EB880201EB4201A1F16E
:104FC000300810F8011BF2E70E90CDF808802E296A
:104FD00014D1CDF810E0024612F8011B2A290E92D6
:104FE0000FD1019D29680A1D2A60096821EAE17B29
:104FF000CDF810B0417802300E9015E04FF0FF3B35
:1050000012E04FF0000BA1F13000092808D80BEB9B
:105010008B0001EB400012F8011BA0F1300BF2E70E
:1050200010460E92CDF810B0302B41F0200306BF91
:10503000CDF81880424600226C2B06D101218DF854
:105040000C1010F8011B0E9001E08DF80CE0CDF86B
:105050001CC00AAB6929CDF814E0099301D064297A
:1050600016D1019B1868011D196093456FF0090363
:10507000C8BF5A460168604606920EF0AFFADDF8E6
:1050800000C04FF0000E0990ACEB0001059128E044
:1050900075290AD0A1F16F03092B5FD8DFE803F06F
:1050A000058C6A6AA26A6A6A6A05019D2868031DFE
:1050B0002B6078294FF0080308BF1023752908BF1B
:1050C0000A239345C8BF5A460168604606920EF00F
:1050D00085FADDF800C0ACEB0001099005914FF0B6
:1050E000000EA8EB0100B9F1000F02901CD109E0FD
:1050F000022E06D3013E1FB107F801AB029800E073
:105100000027013401380290F2DA0DE00998022EEE
:1051100007D3013E27B1007807F8010B099800E09A
:1051200000270130013409900598411E002805919F
:10513000ECD19DF80D0078B10298013802900BDB9C
:10514000022E05D3013E17B107F801AB00E000279E
:105150000134F1E7002701340E9ADBE6632909D117
:10516000019A1068011D11600121006805918DF8F8
:105170002800B4E70138022E0E904FD36FF00040A4
:105180000BF1010186426FF0004038BF3046B34555
:10519000024638BF0A46002908BF024604920EA9FB
:1051A000019A02AB05F024FCDDF800C09DF80D90DB
:1051B000DDF80880059992E7019A10231068011D17
:1051C00011600821082206919DF82010002901682D
:1051D00060460EF003FA4FF04001DDF800C000F821
:1051E000011D78E7019A1068011D11609DF82010DB
:1051F000006800290E49002808BF0846099016F0EB
:105200006CFA834501464FF0000E38BF59461BF13A
:10521000010208BF0146DDF800C037E700215EE764
:105220000FB100203870A64670460FB0BDE8F08F71
:10523000B6E501002DE9F84F054605F14C0AE87D79
:105240009AF80010DAF8047081424FF00008C0F0BC
:105250008E8105F1280407F1900907F17306C34612
:1052600040F08C80A87F7075E97FB175DAF808206E
:105270005278930710D5EA7FD30604D5C01E707507
:1052800001F0EF01B175C7F874B086F80080002214
:10529000B17D01F0FE0165E1910608D4E08B00B11B
:1052A000E07E3076E08B00B1206AC9F80000DAF8C1
:1052B00008004178CA070DD5E08B00281CBF206A82
:1052C000002807D0C9F80000A17EE08B814238BFDA
:1052D00008463076E87FC1060CD5B86B217800EB24
:1052E0008100B863B86BA98CA63100EB81007867A8
:1052F000022002E0C7F874B000203070DAF808002D
:10530000417811F0030F22D1007816F0B8FC5FEA63
:1053100000081CD098F8B000032809D1E87F810666
:1053200015D440F02000E877B07D40F020000DE07B
:1053300068B9E87F81060AD500F0DF00E877707D64
:10534000A0F112017175B07D00F0DF00B075E97F4A
:10535000002201F0FC01284608F08AFDB8F1000F98
:1053600036D0E87F810633D598F8B00002282FD1D7
:1053700041462846BDE8F44F16F093BCE87F81060D
:105380000AD500F0DF00E877707DA0F11201717599
:10539000B07D00F0DF00B075DAF808004178C8078A
:1053A00017D5B07D717D00F0F700891E01F03F0137
:1053B00082075CBF891D40F00200420644BF491EBF
:1053C00000F0BF00B0757175C9F800B086F818809C
:1053D000CDE09AF80020E87D101A89075FFA80F87E
:1053E00040F18180B8F1010F3ED1B86BA98C00EB80
:1053F0008100B863A87F00F03F00A8777075E97F4F
:10540000B175DAF8082053785A0703D5801F7075F4
:1054100001F0FD01B1750023717D97F84000E27E37
:1054200001F03F018A18C0F38001521C00F0030014
:1054300016F082FF00F59B70A8841E2180B290FBBD
:10544000F1F0B17D82B201F0FE01284608F010FDB6
:1054500086F800B0E08B00B1E07E3076E08B00B1E2
:10546000206AC9F8000082E0B86BA98CB8F1020F7D
:1054700000EB8100B86326D1E87FC10706D5707DB7
:10548000811F7175B07D00F0FE00B0750023717D45
:1054900097F84000E27E01F03F018A18C0F38001D6
:1054A000521C00F0030016F047FF00F59B70A88423
:1054B0000022B17D01F0FE01284608F0D9FC607F92
:1054C00007F140014883607F401CA0EB0801C8B28F
:1054D00001281CDDB96BAA8CA63201EB8201796729
:1054E0000221317014E0B86BA98C00EB8100B86325
:1054F000607FA0EB0801C8B2E97FCA0607D5B96B87
:10550000AA8CA63201EB820179670221317070B357
:1055100095F81F80A97FD9F80020E37E1A44C9F8C6
:10552000002028F00108DAF8082053785A0748BF0D
:1055300028F00208012807D1207F3076C7F874B020
:1055400028F0100886F800B001F0C004404616F0BC
:10555000F7FE00F03F002043707586F816800022A9
:1055600008F0FC012846BDE8F84F08F081BCBDE812
:10557000F18F70472DE9F84F050051D0BC4E3078BF
:10558000092818BF0A2804D00B281CBF0C280D2896
:1055900001D121206AE1A878002116F039FF04002A
:1055A00008BF4220F6D0B34FA978DFF8CC9239700B
:1055B000307810B9A87889F8000004F1480ADAF8C0
:1055C0000C00417801F01201022902BFDAF8140040
:1055D00000280C2013D0607A10B3A07B012804D1DE
:1055E000B5F8030008B181281ADA6878402817DA7C
:1055F000204616F03DFEDAF8080008B9072035E12C
:10560000CAF8185004F12208287801281FD1A07B7D
:1056100000281CBF0128042819D19848007808B92F
:10562000122023E196494A78824208BF0920F8D027
:10563000DAF80C004178480709D598F81D2004F1E4
:105640003801802008F0C6FD08B10B200EE1687813
:1056500008B911200AE12878DFF828B2012840F0C3
:10566000B58000212173CAF86C10217A012904D178
:10567000DAF8181068794871F7E011200FF0ADF9E9
:10568000012000212072E1726173254609F080FD3E
:105690006060DBF8000080477B4A0146106802E04A
:1056A0006A68426000680028FAD1784A08461168A2
:1056B00088476968764848610021387816F0D1FA41
:1056C0003978012211200EF004FE05F14807F86830
:1056D0004178C80605D5284600F082FF010025D094
:1056E000C4E0B8F8000016F015FB85F82100F86852
:1056F000007816F0C4FA04001CBF94F8B00000282B
:1057000007D0E87F40F02000E877687D40F018007F
:105710006875284616F002FB0100E1D134B194F817
:10572000B000012804BF284616F0B7FAF86841789F
:10573000C8071CD505F14204A08800281CBF3968A1
:10574000002914D02278824211D20F2016F08CFD4D
:1057500068B1F96808788DF800000F20A188ADF8CD
:105760000110694622788DF8032016F079FD307813
:1057700098B94849087800281EBFF868417811F0A8
:10578000030F03D04448006816F066FD1120307006
:105790000121297216F0C0FA67E0284613F050FA8A
:1057A00000281CBFB96800295FD0AA7B012A04D059
:1057B0002A69808802EB800202E04A6E286912188A
:1057C00095F8B810104609F0A1FA4EE0207A0028AA
:1057D0004BD0DBF80010884705463878012116F0D9
:1057E00040FA00202D4920720A6811460B68187A89
:1057F000002801BF5E6D30783B78984203D0C968BD
:105800009142F3D10BE0264E3078012807DD08469F
:1058100012F0A2FE15F0EEFE3078411E317038789D
:1058200099F80010194E884216D115F0BBFE616838
:10583000884211D113F098FC40F2014016F068FD47
:105840001849194A194808600121107809F0FAF935
:1058500031682846884708E0204616F0F9FC316890
:1058600028468847204612F077FA0020BDE8F28FDC
:10587000C80F0020D60F0020D50F0020D40F002025
:10588000780E00209C2600204C0F0020A02600202F
:10589000B1870000880E00206C0F0020F04000202F
:1058A00066410020480F0020C70F002049960000E5
:1058B000F8B5144600254FF48067DFF89862C21BE4
:1058C00084B006F1880337D0921E3CD0521E44D0DB
:1058D000521E4AD0521E50D0521E54D0521E00F0BA
:1058E0007A80921E00F07C80D21E00F0AC80521EA6
:1058F00000F0B780921E00F0C080521E00F07B8046
:10590000521E00F0C180521E00F0CF80521E00F0E7
:10591000D280521E3ED0521E56D0521E4BD0921EE6
:1059200000F0DE80921E00F0E280521E00F0ED805A
:10593000521E00F0F98000E101290FD120780228E1
:1059400017DC707003E1012908D12078022810DAF1
:105950000028B070F6D1B074E3E0012940F0EB808C
:105960002078052805DAF070F1E001296CD1207863
:10597000022880F2E0807073E9E0102964D11022DF
:105980002146754814E001295ED12078022863DAA7
:105990003071DCE0012957D1207802285CDA002838
:1059A0007071F6D00120F074602206F128011846CB
:1059B00015F02AFCCBE00129FCD12078022802DA7C
:1059C000B07115F0F7FDC2E001293DD12078022821
:1059D00042DAF072BBE0012936D12078F073B6E0EC
:1059E000002931D116F0E8FC10B9FBF7F9FB1DE0F6
:1059F0000120F075ABE0072926D10622611C02A820
:105A000015F034FA00950023217801AA02A809F0C4
:105A100003FFB0B9F07A10B916F0CEFC10B1F07AED
:105A2000012808D19DF80400FBF7EEFB0546502045
:105A300014F0EEFD1EE0716A9DF8042001208854E8
:105A400085E0342583E0012975D1717C2078022915
:105A500003D0C11F0A2902D36DE010286BD1307426
:105A600075E0012967D1B07D2178B175002808BFA4
:105A700001296CD1FBF740FB69E001295BD120785B
:105A8000052858DA307562E0012954D120780228BF
:105A900051DC00284FD07074022803BF10203074EE
:105AA0000120002016F0D0FB51E0012943D12078DD
:105AB00014F0EAFF4BE0707900283CD1602908D14E
:105AC000002C38D060222146184615F09DFB01209D
:105AD00004E001292FD1002C2DD02078F07436E07D
